{
  "contractName": "SupplyChain",
  "abi": [
    {
      "inputs": [],
      "stateMutability": "payable",
      "type": "constructor"
    },
    {
      "anonymous": false,
      "inputs": [
        {
          "indexed": true,
          "internalType": "address",
          "name": "account",
          "type": "address"
        }
      ],
      "name": "ConsumerAdded",
      "type": "event"
    },
    {
      "anonymous": false,
      "inputs": [
        {
          "indexed": true,
          "internalType": "address",
          "name": "account",
          "type": "address"
        }
      ],
      "name": "ConsumerRemoved",
      "type": "event"
    },
    {
      "anonymous": false,
      "inputs": [
        {
          "indexed": true,
          "internalType": "address",
          "name": "account",
          "type": "address"
        }
      ],
      "name": "DistributorAdded",
      "type": "event"
    },
    {
      "anonymous": false,
      "inputs": [
        {
          "indexed": true,
          "internalType": "address",
          "name": "account",
          "type": "address"
        }
      ],
      "name": "DistributorRemoved",
      "type": "event"
    },
    {
      "anonymous": false,
      "inputs": [
        {
          "indexed": true,
          "internalType": "address",
          "name": "account",
          "type": "address"
        }
      ],
      "name": "FarmerAdded",
      "type": "event"
    },
    {
      "anonymous": false,
      "inputs": [
        {
          "indexed": true,
          "internalType": "address",
          "name": "account",
          "type": "address"
        }
      ],
      "name": "FarmerRemoved",
      "type": "event"
    },
    {
      "anonymous": false,
      "inputs": [
        {
          "indexed": false,
          "internalType": "uint256",
          "name": "upc",
          "type": "uint256"
        }
      ],
      "name": "ForSale",
      "type": "event"
    },
    {
      "anonymous": false,
      "inputs": [
        {
          "indexed": false,
          "internalType": "uint256",
          "name": "upc",
          "type": "uint256"
        }
      ],
      "name": "Harvested",
      "type": "event"
    },
    {
      "anonymous": false,
      "inputs": [
        {
          "indexed": false,
          "internalType": "uint256",
          "name": "upc",
          "type": "uint256"
        }
      ],
      "name": "Packed",
      "type": "event"
    },
    {
      "anonymous": false,
      "inputs": [
        {
          "indexed": false,
          "internalType": "uint256",
          "name": "upc",
          "type": "uint256"
        }
      ],
      "name": "Processed",
      "type": "event"
    },
    {
      "anonymous": false,
      "inputs": [
        {
          "indexed": false,
          "internalType": "uint256",
          "name": "upc",
          "type": "uint256"
        }
      ],
      "name": "Purchased",
      "type": "event"
    },
    {
      "anonymous": false,
      "inputs": [
        {
          "indexed": false,
          "internalType": "uint256",
          "name": "upc",
          "type": "uint256"
        }
      ],
      "name": "Received",
      "type": "event"
    },
    {
      "anonymous": false,
      "inputs": [
        {
          "indexed": true,
          "internalType": "address",
          "name": "account",
          "type": "address"
        }
      ],
      "name": "RetailerAdded",
      "type": "event"
    },
    {
      "anonymous": false,
      "inputs": [
        {
          "indexed": true,
          "internalType": "address",
          "name": "account",
          "type": "address"
        }
      ],
      "name": "RetailerRemoved",
      "type": "event"
    },
    {
      "anonymous": false,
      "inputs": [
        {
          "indexed": false,
          "internalType": "uint256",
          "name": "upc",
          "type": "uint256"
        }
      ],
      "name": "Shipped",
      "type": "event"
    },
    {
      "anonymous": false,
      "inputs": [
        {
          "indexed": false,
          "internalType": "uint256",
          "name": "upc",
          "type": "uint256"
        }
      ],
      "name": "Sold",
      "type": "event"
    },
    {
      "anonymous": false,
      "inputs": [
        {
          "indexed": true,
          "internalType": "address",
          "name": "oldOwner",
          "type": "address"
        },
        {
          "indexed": true,
          "internalType": "address",
          "name": "newOwner",
          "type": "address"
        }
      ],
      "name": "TransferOwnership",
      "type": "event"
    },
    {
      "inputs": [
        {
          "internalType": "address",
          "name": "account",
          "type": "address"
        }
      ],
      "name": "addConsumer",
      "outputs": [],
      "stateMutability": "nonpayable",
      "type": "function"
    },
    {
      "inputs": [
        {
          "internalType": "address",
          "name": "account",
          "type": "address"
        }
      ],
      "name": "addDistributor",
      "outputs": [],
      "stateMutability": "nonpayable",
      "type": "function"
    },
    {
      "inputs": [
        {
          "internalType": "address",
          "name": "account",
          "type": "address"
        }
      ],
      "name": "addFarmer",
      "outputs": [],
      "stateMutability": "nonpayable",
      "type": "function"
    },
    {
      "inputs": [
        {
          "internalType": "address",
          "name": "account",
          "type": "address"
        }
      ],
      "name": "addRetailer",
      "outputs": [],
      "stateMutability": "nonpayable",
      "type": "function"
    },
    {
      "inputs": [
        {
          "internalType": "address",
          "name": "account",
          "type": "address"
        }
      ],
      "name": "isConsumer",
      "outputs": [
        {
          "internalType": "bool",
          "name": "",
          "type": "bool"
        }
      ],
      "stateMutability": "view",
      "type": "function"
    },
    {
      "inputs": [
        {
          "internalType": "address",
          "name": "account",
          "type": "address"
        }
      ],
      "name": "isDistributor",
      "outputs": [
        {
          "internalType": "bool",
          "name": "",
          "type": "bool"
        }
      ],
      "stateMutability": "view",
      "type": "function"
    },
    {
      "inputs": [
        {
          "internalType": "address",
          "name": "account",
          "type": "address"
        }
      ],
      "name": "isFarmer",
      "outputs": [
        {
          "internalType": "bool",
          "name": "",
          "type": "bool"
        }
      ],
      "stateMutability": "view",
      "type": "function"
    },
    {
      "inputs": [],
      "name": "isOwner",
      "outputs": [
        {
          "internalType": "bool",
          "name": "",
          "type": "bool"
        }
      ],
      "stateMutability": "view",
      "type": "function"
    },
    {
      "inputs": [
        {
          "internalType": "address",
          "name": "account",
          "type": "address"
        }
      ],
      "name": "isRetailer",
      "outputs": [
        {
          "internalType": "bool",
          "name": "",
          "type": "bool"
        }
      ],
      "stateMutability": "view",
      "type": "function"
    },
    {
      "inputs": [],
      "name": "owner",
      "outputs": [
        {
          "internalType": "address payable",
          "name": "",
          "type": "address"
        }
      ],
      "stateMutability": "view",
      "type": "function"
    },
    {
      "inputs": [],
      "name": "renounceConsumer",
      "outputs": [],
      "stateMutability": "nonpayable",
      "type": "function"
    },
    {
      "inputs": [],
      "name": "renounceDistributor",
      "outputs": [],
      "stateMutability": "nonpayable",
      "type": "function"
    },
    {
      "inputs": [],
      "name": "renounceFarmer",
      "outputs": [],
      "stateMutability": "nonpayable",
      "type": "function"
    },
    {
      "inputs": [],
      "name": "renounceOwnership",
      "outputs": [],
      "stateMutability": "nonpayable",
      "type": "function"
    },
    {
      "inputs": [],
      "name": "renounceRetailer",
      "outputs": [],
      "stateMutability": "nonpayable",
      "type": "function"
    },
    {
      "inputs": [
        {
          "internalType": "address",
          "name": "newOwner",
          "type": "address"
        }
      ],
      "name": "transferOwnership",
      "outputs": [],
      "stateMutability": "nonpayable",
      "type": "function"
    },
    {
      "inputs": [],
      "name": "kill",
      "outputs": [],
      "stateMutability": "nonpayable",
      "type": "function"
    },
    {
      "inputs": [
        {
          "internalType": "uint256",
          "name": "_upc",
          "type": "uint256"
        },
        {
          "internalType": "address",
          "name": "_originFarmerID",
          "type": "address"
        },
        {
          "internalType": "string",
          "name": "_originFarmName",
          "type": "string"
        },
        {
          "internalType": "string",
          "name": "_originFarmInformation",
          "type": "string"
        },
        {
          "internalType": "string",
          "name": "_originFarmLatitude",
          "type": "string"
        },
        {
          "internalType": "string",
          "name": "_originFarmLongitude",
          "type": "string"
        },
        {
          "internalType": "string",
          "name": "_productNotes",
          "type": "string"
        }
      ],
      "name": "harvestItem",
      "outputs": [],
      "stateMutability": "nonpayable",
      "type": "function"
    },
    {
      "inputs": [
        {
          "internalType": "uint256",
          "name": "_upc",
          "type": "uint256"
        }
      ],
      "name": "processItem",
      "outputs": [],
      "stateMutability": "nonpayable",
      "type": "function"
    },
    {
      "inputs": [
        {
          "internalType": "uint256",
          "name": "_upc",
          "type": "uint256"
        }
      ],
      "name": "packItem",
      "outputs": [],
      "stateMutability": "nonpayable",
      "type": "function"
    },
    {
      "inputs": [
        {
          "internalType": "uint256",
          "name": "_upc",
          "type": "uint256"
        },
        {
          "internalType": "uint256",
          "name": "_price",
          "type": "uint256"
        }
      ],
      "name": "sellItem",
      "outputs": [],
      "stateMutability": "nonpayable",
      "type": "function"
    },
    {
      "inputs": [
        {
          "internalType": "uint256",
          "name": "_upc",
          "type": "uint256"
        }
      ],
      "name": "buyItem",
      "outputs": [],
      "stateMutability": "payable",
      "type": "function"
    },
    {
      "inputs": [
        {
          "internalType": "uint256",
          "name": "_upc",
          "type": "uint256"
        }
      ],
      "name": "shipItem",
      "outputs": [],
      "stateMutability": "nonpayable",
      "type": "function"
    },
    {
      "inputs": [
        {
          "internalType": "uint256",
          "name": "_upc",
          "type": "uint256"
        }
      ],
      "name": "receiveItem",
      "outputs": [],
      "stateMutability": "nonpayable",
      "type": "function"
    },
    {
      "inputs": [
        {
          "internalType": "uint256",
          "name": "_upc",
          "type": "uint256"
        }
      ],
      "name": "purchaseItem",
      "outputs": [],
      "stateMutability": "nonpayable",
      "type": "function"
    },
    {
      "inputs": [
        {
          "internalType": "uint256",
          "name": "_upc",
          "type": "uint256"
        }
      ],
      "name": "fetchItemBufferOne",
      "outputs": [
        {
          "internalType": "uint256",
          "name": "itemSKU",
          "type": "uint256"
        },
        {
          "internalType": "uint256",
          "name": "itemUPC",
          "type": "uint256"
        },
        {
          "internalType": "address",
          "name": "ownerID",
          "type": "address"
        },
        {
          "internalType": "address",
          "name": "originFarmerID",
          "type": "address"
        },
        {
          "internalType": "string",
          "name": "originFarmName",
          "type": "string"
        },
        {
          "internalType": "string",
          "name": "originFarmInformation",
          "type": "string"
        },
        {
          "internalType": "string",
          "name": "originFarmLatitude",
          "type": "string"
        },
        {
          "internalType": "string",
          "name": "originFarmLongitude",
          "type": "string"
        }
      ],
      "stateMutability": "view",
      "type": "function"
    },
    {
      "inputs": [
        {
          "internalType": "uint256",
          "name": "_upc",
          "type": "uint256"
        }
      ],
      "name": "fetchItemBufferTwo",
      "outputs": [
        {
          "internalType": "uint256",
          "name": "itemSKU",
          "type": "uint256"
        },
        {
          "internalType": "uint256",
          "name": "itemUPC",
          "type": "uint256"
        },
        {
          "internalType": "uint256",
          "name": "productID",
          "type": "uint256"
        },
        {
          "internalType": "string",
          "name": "productNotes",
          "type": "string"
        },
        {
          "internalType": "uint256",
          "name": "productPrice",
          "type": "uint256"
        },
        {
          "internalType": "uint256",
          "name": "itemState",
          "type": "uint256"
        },
        {
          "internalType": "address",
          "name": "distributorID",
          "type": "address"
        },
        {
          "internalType": "address",
          "name": "retailerID",
          "type": "address"
        },
        {
          "internalType": "address",
          "name": "consumerID",
          "type": "address"
        }
      ],
      "stateMutability": "view",
      "type": "function"
    }
  ],
  "bytecode": "0x6080604052336000806101000a81548173ffffffffffffffffffffffffffffffffffffffff021916908373ffffffffffffffffffffffffffffffffffffffff1602179055506000809054906101000a900473ffffffffffffffffffffffffffffffffffffffff1673ffffffffffffffffffffffffffffffffffffffff16600073ffffffffffffffffffffffffffffffffffffffff167f5c486528ec3e3f0ea91181cff8116f02bfa350e03b8b6f12e00765adbb5af85c60405160405180910390a3620000d1336200011a60201b60201c565b620000e2336200017b60201b60201c565b620000f333620001dc60201b60201c565b62000104336200023d60201b60201c565b6001600681905550600160058190555062000522565b620001358160016200029e60201b62002f571790919060201c565b8073ffffffffffffffffffffffffffffffffffffffff167f28b26e7a3d20aedbc5f8f2ebf7da671c0491723a2b78f47a097b0e46dee0714260405160405180910390a250565b620001968160026200029e60201b62002f571790919060201c565b8073ffffffffffffffffffffffffffffffffffffffff167fddbf200aa634dc3fb81cfd68583dd1040d1c751d335e1d86b631bde3e977fea860405160405180910390a250565b620001f78160036200029e60201b62002f571790919060201c565b8073ffffffffffffffffffffffffffffffffffffffff167f2e0ded4123377a3c2bc9a26f1717655a129e2f20752924d42e730ec89c83dbd060405160405180910390a250565b620002588160046200029e60201b62002f571790919060201c565b8073ffffffffffffffffffffffffffffffffffffffff167f71ae26cad02663e3d92efd6ec56031a80d74a20c0ab4183faa8bf262261c9baa60405160405180910390a250565b600073ffffffffffffffffffffffffffffffffffffffff168173ffffffffffffffffffffffffffffffffffffffff16141562000342576040517f08c379a00000000000000000000000000000000000000000000000000000000081526004018080602001828103825260198152602001807f43616e206f6e6c7920616464207265616c20616464726573730000000000000081525060200191505060405180910390fd5b6200035482826200042660201b60201c565b15620003c8576040517f08c379a00000000000000000000000000000000000000000000000000000000081526004018080602001828103825260158152602001807f416c7265616479206861732074686520726f6c652e000000000000000000000081525060200191505060405180910390fd5b60018260000160008373ffffffffffffffffffffffffffffffffffffffff1673ffffffffffffffffffffffffffffffffffffffff16815260200190815260200160002060006101000a81548160ff0219169083151502179055505050565b60008073ffffffffffffffffffffffffffffffffffffffff168273ffffffffffffffffffffffffffffffffffffffff161415620004cb576040517f08c379a000000000000000000000000000000000000000000000000000000000815260040180806020018281038252601b8152602001807f43616e206f6e6c7920636865636b207265616c2061646472657373000000000081525060200191505060405180910390fd5b8260000160008373ffffffffffffffffffffffffffffffffffffffff1673ffffffffffffffffffffffffffffffffffffffff16815260200190815260200160002060009054906101000a900460ff16905092915050565b61351b80620005326000396000f3fe60806040526004361061019c5760003560e01c8063834ff739116100ec578063bdd8a6a81161008a578063e7fb74c711610064578063e7fb74c714610db9578063f2fde38b14610de7578063f30fc48014610e38578063f61c899a14610e735761019c565b8063bdd8a6a814610a19578063d38ea5bf14610d67578063db0e6a2f14610da25761019c565b80638f0c86fa116100c65780638f0c86fa146108dd5780638f32d59b14610946578063a26be99914610975578063b9429069146109b05761019c565b8063834ff739146107cc5780638da5cb5b146108355780638ec4f5051461088c5761019c565b8063644241db116101595780637250e224116101335780637250e224146104a757806377c45913146104f857806380c3f96d1461076457806380fc0ce4146107b55761019c565b8063644241db1461030957806366225ff914610320578063715018a6146104905761019c565b8063112940f9146101a15780632d923561146101f257806341c0e1b51461023757806349dae7661461024e5780635da09b881461028957806361e6982d146102f2575b600080fd5b3480156101ad57600080fd5b506101f0600480360360208110156101c457600080fd5b81019080803573ffffffffffffffffffffffffffffffffffffffff169060200190929190505050610eae565b005b3480156101fe57600080fd5b506102356004803603604081101561021557600080fd5b810190808035906020019092919080359060200190929190505050610f18565b005b34801561024357600080fd5b5061024c611098565b005b34801561025a57600080fd5b506102876004803603602081101561027157600080fd5b81019080803590602001909291905050506110f4565b005b34801561029557600080fd5b506102d8600480360360208110156102ac57600080fd5b81019080803573ffffffffffffffffffffffffffffffffffffffff169060200190929190505050611258565b604051808215151515815260200191505060405180910390f35b3480156102fe57600080fd5b50610307611275565b005b34801561031557600080fd5b5061031e611280565b005b34801561032c57600080fd5b506103596004803603602081101561034357600080fd5b810190808035906020019092919050505061128b565b604051808a8152602001898152602001888152602001806020018781526020018681526020018573ffffffffffffffffffffffffffffffffffffffff1673ffffffffffffffffffffffffffffffffffffffff1681526020018473ffffffffffffffffffffffffffffffffffffffff1673ffffffffffffffffffffffffffffffffffffffff1681526020018373ffffffffffffffffffffffffffffffffffffffff1673ffffffffffffffffffffffffffffffffffffffff168152602001828103825288818151815260200191508051906020019080838360005b8381101561044d578082015181840152602081019050610432565b50505050905090810190601f16801561047a5780820380516001836020036101000a031916815260200191505b509a505050505050505050505060405180910390f35b34801561049c57600080fd5b506104a5611498565b005b3480156104b357600080fd5b506104f6600480360360208110156104ca57600080fd5b81019080803573ffffffffffffffffffffffffffffffffffffffff1690602001909291905050506115b4565b005b34801561050457600080fd5b506105316004803603602081101561051b57600080fd5b810190808035906020019092919050505061161e565b604051808981526020018881526020018773ffffffffffffffffffffffffffffffffffffffff1673ffffffffffffffffffffffffffffffffffffffff1681526020018673ffffffffffffffffffffffffffffffffffffffff1673ffffffffffffffffffffffffffffffffffffffff16815260200180602001806020018060200180602001858103855289818151815260200191508051906020019080838360005b838110156105ed5780820151818401526020810190506105d2565b50505050905090810190601f16801561061a5780820380516001836020036101000a031916815260200191505b50858103845288818151815260200191508051906020019080838360005b83811015610653578082015181840152602081019050610638565b50505050905090810190601f1680156106805780820380516001836020036101000a031916815260200191505b50858103835287818151815260200191508051906020019080838360005b838110156106b957808201518184015260208101905061069e565b50505050905090810190601f1680156106e65780820380516001836020036101000a031916815260200191505b50858103825286818151815260200191508051906020019080838360005b8381101561071f578082015181840152602081019050610704565b50505050905090810190601f16801561074c5780820380516001836020036101000a031916815260200191505b509c5050505050505050505050505060405180910390f35b34801561077057600080fd5b506107b36004803603602081101561078757600080fd5b81019080803573ffffffffffffffffffffffffffffffffffffffff16906020019092919050505061199d565b005b3480156107c157600080fd5b506107ca611a07565b005b3480156107d857600080fd5b5061081b600480360360208110156107ef57600080fd5b81019080803573ffffffffffffffffffffffffffffffffffffffff169060200190929190505050611a12565b604051808215151515815260200191505060405180910390f35b34801561084157600080fd5b5061084a611a2f565b604051808273ffffffffffffffffffffffffffffffffffffffff1673ffffffffffffffffffffffffffffffffffffffff16815260200191505060405180910390f35b34801561089857600080fd5b506108db600480360360208110156108af57600080fd5b81019080803573ffffffffffffffffffffffffffffffffffffffff169060200190929190505050611a58565b005b3480156108e957600080fd5b5061092c6004803603602081101561090057600080fd5b81019080803573ffffffffffffffffffffffffffffffffffffffff169060200190929190505050611ac2565b604051808215151515815260200191505060405180910390f35b34801561095257600080fd5b5061095b611adf565b604051808215151515815260200191505060405180910390f35b34801561098157600080fd5b506109ae6004803603602081101561099857600080fd5b8101908080359060200190929190505050611b36565b005b3480156109bc57600080fd5b506109ff600480360360208110156109d357600080fd5b81019080803573ffffffffffffffffffffffffffffffffffffffff169060200190929190505050611d44565b604051808215151515815260200191505060405180910390f35b348015610a2557600080fd5b50610d65600480360360e0811015610a3c57600080fd5b8101908080359060200190929190803573ffffffffffffffffffffffffffffffffffffffff16906020019092919080359060200190640100000000811115610a8357600080fd5b820183602082011115610a9557600080fd5b80359060200191846001830284011164010000000083111715610ab757600080fd5b91908080601f016020809104026020016040519081016040528093929190818152602001838380828437600081840152601f19601f82011690508083019250505050505050919291929080359060200190640100000000811115610b1a57600080fd5b820183602082011115610b2c57600080fd5b80359060200191846001830284011164010000000083111715610b4e57600080fd5b91908080601f016020809104026020016040519081016040528093929190818152602001838380828437600081840152601f19601f82011690508083019250505050505050919291929080359060200190640100000000811115610bb157600080fd5b820183602082011115610bc357600080fd5b80359060200191846001830284011164010000000083111715610be557600080fd5b91908080601f016020809104026020016040519081016040528093929190818152602001838380828437600081840152601f19601f82011690508083019250505050505050919291929080359060200190640100000000811115610c4857600080fd5b820183602082011115610c5a57600080fd5b80359060200191846001830284011164010000000083111715610c7c57600080fd5b91908080601f016020809104026020016040519081016040528093929190818152602001838380828437600081840152601f19601f82011690508083019250505050505050919291929080359060200190640100000000811115610cdf57600080fd5b820183602082011115610cf157600080fd5b80359060200191846001830284011164010000000083111715610d1357600080fd5b91908080601f016020809104026020016040519081016040528093929190818152602001838380828437600081840152601f19601f820116905080830192505050505050509192919290505050611d61565b005b348015610d7357600080fd5b50610da060048036036020811015610d8a57600080fd5b8101908080359060200190929190505050612155565b005b348015610dae57600080fd5b50610db7612362565b005b610de560048036036020811015610dcf57600080fd5b810190808035906020019092919050505061236d565b005b348015610df357600080fd5b50610e3660048036036020811015610e0a57600080fd5b81019080803573ffffffffffffffffffffffffffffffffffffffff1690602001909291905050506126cc565b005b348015610e4457600080fd5b50610e7160048036036020811015610e5b57600080fd5b8101908080359060200190929190505050612735565b005b348015610e7f57600080fd5b50610eac60048036036020811015610e9657600080fd5b8101908080359060200190929190505050612899565b005b610eb733611a12565b610f0c576040517f08c379a00000000000000000000000000000000000000000000000000000000081526004018080602001828103825260248152602001806134416024913960400191505060405180910390fd5b610f15816129fd565b50565b8160026007811115610f2657fe5b60076000838152602001908152602001600020600b0160009054906101000a900460ff166007811115610f5557fe5b14610fab576040517f08c379a000000000000000000000000000000000000000000000000000000000815260040180806020018281038252602b8152602001806134bb602b913960400191505060405180910390fd5b610fb433611d44565b611009576040517f08c379a000000000000000000000000000000000000000000000000000000000815260040180806020018281038252602281526020018061341f6022913960400191505060405180910390fd5b600360076000858152602001908152602001600020600b0160006101000a81548160ff0219169083600781111561103c57fe5b02179055508160076000858152602001908152602001600020600a01819055507fa96ae0fc3224ebd79eebfe54bd130cc9cb94416cddd1f2386115e00b72532468836040518082815260200191505060405180910390a1505050565b60006110a2611a2f565b90508073ffffffffffffffffffffffffffffffffffffffff163373ffffffffffffffffffffffffffffffffffffffff1614156110f1578073ffffffffffffffffffffffffffffffffffffffff16ff5b50565b806000600781111561110257fe5b60076000838152602001908152602001600020600b0160009054906101000a900460ff16600781111561113157fe5b14611187576040517f08c379a000000000000000000000000000000000000000000000000000000000815260040180806020018281038252602e8152602001806133cd602e913960400191505060405180910390fd5b61119033611d44565b6111e5576040517f08c379a000000000000000000000000000000000000000000000000000000000815260040180806020018281038252602281526020018061341f6022913960400191505060405180910390fd5b600060076000848152602001908152602001600020600b0160006101000a81548160ff0219169083600781111561121857fe5b02179055507f5afe3b1bf87069693c075da5c22a98d63d1aef98a30dbbe538d0781a98b77ee5826040518082815260200191505060405180910390a15050565b600061126e826004612a5790919063ffffffff16565b9050919050565b61127e33612b52565b565b61128933612bac565b565b600080600060606000806000806000600760008b8152602001908152602001600020600001549850600760008b8152602001908152602001600020600101549750600760008b8152602001908152602001600020600801549650600760008b81526020019081526020016000206009018054600181600116156101000203166002900480601f01602080910402602001604051908101604052809291908181526020018280546001816001161561010002031660029004801561138f5780601f106113645761010080835404028352916020019161138f565b820191906000526020600020905b81548152906001019060200180831161137257829003601f168201915b50505050509550600760008b8152602001908152602001600020600a01549450600760008b8152602001908152602001600020600b0160009054906101000a900460ff1660078111156113de57fe5b9350600760008b8152602001908152602001600020600b0160019054906101000a900473ffffffffffffffffffffffffffffffffffffffff169250600760008b8152602001908152602001600020600c0160009054906101000a900473ffffffffffffffffffffffffffffffffffffffff169150600760008b8152602001908152602001600020600d0160009054906101000a900473ffffffffffffffffffffffffffffffffffffffff1690509193959799909294969850565b6114a0611adf565b6114f5576040517f08c379a00000000000000000000000000000000000000000000000000000000081526004018080602001828103825260248152602001806133fb6024913960400191505060405180910390fd5b600073ffffffffffffffffffffffffffffffffffffffff166000809054906101000a900473ffffffffffffffffffffffffffffffffffffffff1673ffffffffffffffffffffffffffffffffffffffff167f5c486528ec3e3f0ea91181cff8116f02bfa350e03b8b6f12e00765adbb5af85c60405160405180910390a360008060006101000a81548173ffffffffffffffffffffffffffffffffffffffff021916908373ffffffffffffffffffffffffffffffffffffffff160217905550565b6115bd33611ac2565b611612576040517f08c379a00000000000000000000000000000000000000000000000000000000081526004018080602001828103825260278152602001806133516027913960400191505060405180910390fd5b61161b81612c06565b50565b600080600080606080606080600760008a8152602001908152602001600020600001549750600760008a8152602001908152602001600020600101549650600760008a815260200190815260200160002060020160009054906101000a900473ffffffffffffffffffffffffffffffffffffffff169550600760008a815260200190815260200160002060030160009054906101000a900473ffffffffffffffffffffffffffffffffffffffff169450600760008a81526020019081526020016000206004018054600181600116156101000203166002900480601f0160208091040260200160405190810160405280929190818152602001828054600181600116156101000203166002900480156117785780601f1061174d57610100808354040283529160200191611778565b820191906000526020600020905b81548152906001019060200180831161175b57829003601f168201915b50505050509350600760008a81526020019081526020016000206005018054600181600116156101000203166002900480601f0160208091040260200160405190810160405280929190818152602001828054600181600116156101000203166002900480156118295780601f106117fe57610100808354040283529160200191611829565b820191906000526020600020905b81548152906001019060200180831161180c57829003601f168201915b50505050509250600760008a81526020019081526020016000206006018054600181600116156101000203166002900480601f0160208091040260200160405190810160405280929190818152602001828054600181600116156101000203166002900480156118da5780601f106118af576101008083540402835291602001916118da565b820191906000526020600020905b8154815290600101906020018083116118bd57829003601f168201915b50505050509150600760008a81526020019081526020016000206007018054600181600116156101000203166002900480601f01602080910402602001604051908101604052809291908181526020018280546001816001161561010002031660029004801561198b5780601f106119605761010080835404028352916020019161198b565b820191906000526020600020905b81548152906001019060200180831161196e57829003601f168201915b50505050509050919395975091939597565b6119a633611d44565b6119fb576040517f08c379a000000000000000000000000000000000000000000000000000000000815260040180806020018281038252602281526020018061341f6022913960400191505060405180910390fd5b611a0481612c60565b50565b611a1033612cba565b565b6000611a28826001612a5790919063ffffffff16565b9050919050565b60008060009054906101000a900473ffffffffffffffffffffffffffffffffffffffff16905090565b611a6133611258565b611ab6576040517f08c379a00000000000000000000000000000000000000000000000000000000081526004018080602001828103825260248152602001806133786024913960400191505060405180910390fd5b611abf81612d14565b50565b6000611ad8826002612a5790919063ffffffff16565b9050919050565b60008060009054906101000a900473ffffffffffffffffffffffffffffffffffffffff1673ffffffffffffffffffffffffffffffffffffffff163373ffffffffffffffffffffffffffffffffffffffff1614905090565b8060056007811115611b4457fe5b60076000838152602001908152602001600020600b0160009054906101000a900460ff166007811115611b7357fe5b14611bc9576040517f08c379a000000000000000000000000000000000000000000000000000000000815260040180806020018281038252602c8152602001806132f8602c913960400191505060405180910390fd5b611bd233611258565b611c27576040517f08c379a00000000000000000000000000000000000000000000000000000000081526004018080602001828103825260248152602001806133786024913960400191505060405180910390fd5b600660076000848152602001908152602001600020600b0160006101000a81548160ff02191690836007811115611c5a57fe5b0217905550336007600084815260200190815260200160002060020160006101000a81548173ffffffffffffffffffffffffffffffffffffffff021916908373ffffffffffffffffffffffffffffffffffffffff1602179055503360076000848152602001908152602001600020600b0160016101000a81548173ffffffffffffffffffffffffffffffffffffffff021916908373ffffffffffffffffffffffffffffffffffffffff1602179055507fa8142743f8f70a4c26f3691cf4ed59718381fb2f18070ec52be1f1022d855557826040518082815260200191505060405180910390a15050565b6000611d5a826003612a5790919063ffffffff16565b9050919050565b611d6a33611d44565b611dbf576040517f08c379a000000000000000000000000000000000000000000000000000000000815260040180806020018281038252602281526020018061341f6022913960400191505060405180910390fd5b604051806101e0016040528060065481526020018881526020013373ffffffffffffffffffffffffffffffffffffffff1681526020018773ffffffffffffffffffffffffffffffffffffffff168152602001868152602001858152602001848152602001838152602001600654890181526020018281526020016000815260200160006007811115611e4d57fe5b8152602001600073ffffffffffffffffffffffffffffffffffffffff168152602001600073ffffffffffffffffffffffffffffffffffffffff168152602001600073ffffffffffffffffffffffffffffffffffffffff1681525060076000898152602001908152602001600020600082015181600001556020820151816001015560408201518160020160006101000a81548173ffffffffffffffffffffffffffffffffffffffff021916908373ffffffffffffffffffffffffffffffffffffffff16021790555060608201518160030160006101000a81548173ffffffffffffffffffffffffffffffffffffffff021916908373ffffffffffffffffffffffffffffffffffffffff1602179055506080820151816004019080519060200190611f78929190613252565b5060a0820151816005019080519060200190611f95929190613252565b5060c0820151816006019080519060200190611fb2929190613252565b5060e0820151816007019080519060200190611fcf929190613252565b506101008201518160080155610120820151816009019080519060200190611ff8929190613252565b5061014082015181600a015561016082015181600b0160006101000a81548160ff0219169083600781111561202957fe5b021790555061018082015181600b0160016101000a81548173ffffffffffffffffffffffffffffffffffffffff021916908373ffffffffffffffffffffffffffffffffffffffff1602179055506101a082015181600c0160006101000a81548173ffffffffffffffffffffffffffffffffffffffff021916908373ffffffffffffffffffffffffffffffffffffffff1602179055506101c082015181600d0160006101000a81548173ffffffffffffffffffffffffffffffffffffffff021916908373ffffffffffffffffffffffffffffffffffffffff1602179055509050506001600654016006819055507f8e55ccfc9778ff8eba1646d765cf1982537ce0f9257054a17b48aad745250183876040518082815260200191505060405180910390a150505050505050565b806006600781111561216357fe5b60076000838152602001908152602001600020600b0160009054906101000a900460ff16600781111561219257fe5b146121e8576040517f08c379a000000000000000000000000000000000000000000000000000000000815260040180806020018281038252602d815260200180613324602d913960400191505060405180910390fd5b6121f133611a12565b612246576040517f08c379a00000000000000000000000000000000000000000000000000000000081526004018080602001828103825260248152602001806134416024913960400191505060405180910390fd5b6007806000848152602001908152602001600020600b0160006101000a81548160ff0219169083600781111561227857fe5b0217905550336007600084815260200190815260200160002060020160006101000a81548173ffffffffffffffffffffffffffffffffffffffff021916908373ffffffffffffffffffffffffffffffffffffffff1602179055503360076000848152602001908152602001600020600b0160016101000a81548173ffffffffffffffffffffffffffffffffffffffff021916908373ffffffffffffffffffffffffffffffffffffffff1602179055507f653d56639fee6b566a5c804764e9689de38645f0b733df89a36a1b7b42173dd8826040518082815260200191505060405180910390a15050565b61236b33612d6e565b565b806003600781111561237b57fe5b60076000838152602001908152602001600020600b0160009054906101000a900460ff1660078111156123aa57fe5b14612400576040517f08c379a000000000000000000000000000000000000000000000000000000000815260040180806020018281038252602d815260200180613465602d913960400191505060405180910390fd5b60076000838152602001908152602001600020600a01548034101561248d576040517f08c379a00000000000000000000000000000000000000000000000000000000081526004018080602001828103825260158152602001807f56616c756520697320696e73756666696369656e74000000000000000000000081525060200191505060405180910390fd5b8261249733611ac2565b6124ec576040517f08c379a00000000000000000000000000000000000000000000000000000000081526004018080602001828103825260278152602001806133516027913960400191505060405180910390fd5b600460076000868152602001908152602001600020600b0160006101000a81548160ff0219169083600781111561251f57fe5b0217905550336007600086815260200190815260200160002060020160006101000a81548173ffffffffffffffffffffffffffffffffffffffff021916908373ffffffffffffffffffffffffffffffffffffffff1602179055503360076000868152602001908152602001600020600b0160016101000a81548173ffffffffffffffffffffffffffffffffffffffff021916908373ffffffffffffffffffffffffffffffffffffffff1602179055503373ffffffffffffffffffffffffffffffffffffffff166108fc60076000878152602001908152602001600020600a01549081150290604051600060405180830381858888f1935050505015801561262a573d6000803e3d6000fd5b507f92f64ca637d023f354075a4be751b169c1a8a9ccb6d33cdd0cb3520543995727846040518082815260200191505060405180910390a1600060076000838152602001908152602001600020600a01549050600081340390506126c460076000858152602001908152602001600020600d0160009054906101000a900473ffffffffffffffffffffffffffffffffffffffff1682612dc8565b505050505050565b6126d4611adf565b612729576040517f08c379a00000000000000000000000000000000000000000000000000000000081526004018080602001828103825260248152602001806133fb6024913960400191505060405180910390fd5b61273281612e13565b50565b806000600781111561274357fe5b60076000838152602001908152602001600020600b0160009054906101000a900460ff16600781111561277257fe5b146127c8576040517f08c379a000000000000000000000000000000000000000000000000000000000815260040180806020018281038252602e8152602001806133cd602e913960400191505060405180910390fd5b6127d133611d44565b612826576040517f08c379a000000000000000000000000000000000000000000000000000000000815260040180806020018281038252602281526020018061341f6022913960400191505060405180910390fd5b600260076000848152602001908152602001600020600b0160006101000a81548160ff0219169083600781111561285957fe5b02179055507f9b3b66e2380b690bae22c73ef1428fb0c91e72fe14a4b6defa13035214187aff826040518082815260200191505060405180910390a15050565b80600460078111156128a757fe5b60076000838152602001908152602001600020600b0160009054906101000a900460ff1660078111156128d657fe5b1461292c576040517f08c379a00000000000000000000000000000000000000000000000000000000081526004018080602001828103825260298152602001806134926029913960400191505060405180910390fd5b61293533611ac2565b61298a576040517f08c379a00000000000000000000000000000000000000000000000000000000081526004018080602001828103825260278152602001806133516027913960400191505060405180910390fd5b600560076000848152602001908152602001600020600b0160006101000a81548160ff021916908360078111156129bd57fe5b02179055507ff00b9a5725b80c54016f42114f6ed7792d22eecb116011c4afac29c57bef6c95826040518082815260200191505060405180910390a15050565b612a11816001612f5790919063ffffffff16565b8073ffffffffffffffffffffffffffffffffffffffff167f28b26e7a3d20aedbc5f8f2ebf7da671c0491723a2b78f47a097b0e46dee0714260405160405180910390a250565b60008073ffffffffffffffffffffffffffffffffffffffff168273ffffffffffffffffffffffffffffffffffffffff161415612afb576040517f08c379a000000000000000000000000000000000000000000000000000000000815260040180806020018281038252601b8152602001807f43616e206f6e6c7920636865636b207265616c2061646472657373000000000081525060200191505060405180910390fd5b8260000160008373ffffffffffffffffffffffffffffffffffffffff1673ffffffffffffffffffffffffffffffffffffffff16815260200190815260200160002060009054906101000a900460ff16905092915050565b612b668160016130d590919063ffffffff16565b8073ffffffffffffffffffffffffffffffffffffffff167fe3f5ed5f263f1f01764a96edfc7d025f511ec5f7d180e8816908b78bcf74f09860405160405180910390a250565b612bc08160026130d590919063ffffffff16565b8073ffffffffffffffffffffffffffffffffffffffff167f126174f6cf49c81cdb4a9214c6b8f037bef55b4ec31e4fc776cea2a1c8a88d5960405160405180910390a250565b612c1a816002612f5790919063ffffffff16565b8073ffffffffffffffffffffffffffffffffffffffff167fddbf200aa634dc3fb81cfd68583dd1040d1c751d335e1d86b631bde3e977fea860405160405180910390a250565b612c74816003612f5790919063ffffffff16565b8073ffffffffffffffffffffffffffffffffffffffff167f2e0ded4123377a3c2bc9a26f1717655a129e2f20752924d42e730ec89c83dbd060405160405180910390a250565b612cce8160036130d590919063ffffffff16565b8073ffffffffffffffffffffffffffffffffffffffff167fa5e0f060af304ab17dd418c7927e3da3ae7868189bf387aee09ab179ccc572f260405160405180910390a250565b612d28816004612f5790919063ffffffff16565b8073ffffffffffffffffffffffffffffffffffffffff167f71ae26cad02663e3d92efd6ec56031a80d74a20c0ab4183faa8bf262261c9baa60405160405180910390a250565b612d828160046130d590919063ffffffff16565b8073ffffffffffffffffffffffffffffffffffffffff167fdb7176e79cffef81cb01767dd0447a0b24bb72ca9778d4b245581086b2a7e6db60405160405180910390a250565b8173ffffffffffffffffffffffffffffffffffffffff166108fc829081150290604051600060405180830381858888f19350505050158015612e0e573d6000803e3d6000fd5b505050565b600073ffffffffffffffffffffffffffffffffffffffff168173ffffffffffffffffffffffffffffffffffffffff161415612e99576040517f08c379a000000000000000000000000000000000000000000000000000000000815260040180806020018281038252603181526020018061339c6031913960400191505060405180910390fd5b8073ffffffffffffffffffffffffffffffffffffffff166000809054906101000a900473ffffffffffffffffffffffffffffffffffffffff1673ffffffffffffffffffffffffffffffffffffffff167f5c486528ec3e3f0ea91181cff8116f02bfa350e03b8b6f12e00765adbb5af85c60405160405180910390a3806000806101000a81548173ffffffffffffffffffffffffffffffffffffffff021916908373ffffffffffffffffffffffffffffffffffffffff16021790555050565b600073ffffffffffffffffffffffffffffffffffffffff168173ffffffffffffffffffffffffffffffffffffffff161415612ffa576040517f08c379a00000000000000000000000000000000000000000000000000000000081526004018080602001828103825260198152602001807f43616e206f6e6c7920616464207265616c20616464726573730000000000000081525060200191505060405180910390fd5b6130048282612a57565b15613077576040517f08c379a00000000000000000000000000000000000000000000000000000000081526004018080602001828103825260158152602001807f416c7265616479206861732074686520726f6c652e000000000000000000000081525060200191505060405180910390fd5b60018260000160008373ffffffffffffffffffffffffffffffffffffffff1673ffffffffffffffffffffffffffffffffffffffff16815260200190815260200160002060006101000a81548160ff0219169083151502179055505050565b600073ffffffffffffffffffffffffffffffffffffffff168173ffffffffffffffffffffffffffffffffffffffff161415613178576040517f08c379a000000000000000000000000000000000000000000000000000000000815260040180806020018281038252601c8152602001807f43616e206f6e6c792072656d6f7665207265616c20616464726573730000000081525060200191505060405180910390fd5b6131828282612a57565b6131f4576040517f08c379a00000000000000000000000000000000000000000000000000000000081526004018080602001828103825260168152602001807f446f6573206e6f7420686176652074686520726f6c650000000000000000000081525060200191505060405180910390fd5b60008260000160008373ffffffffffffffffffffffffffffffffffffffff1673ffffffffffffffffffffffffffffffffffffffff16815260200190815260200160002060006101000a81548160ff0219169083151502179055505050565b828054600181600116156101000203166002900490600052602060002090601f016020900481019282601f1061329357805160ff19168380011785556132c1565b828001600101855582156132c1579182015b828111156132c05782518255916020019190600101906132a5565b5b5090506132ce91906132d2565b5090565b6132f491905b808211156132f05760008160009055506001016132d8565b5090565b9056fe57726f6e672073746174652c20636f666665652073686f756c6420626520736869707065642066697273742e57726f6e672073746174652c20636f666665652073686f756c642062652072656365697665642066697273742e4f6e6c792061204469737472696275746f722063616e2074616b65207468697320616374696f6e4f6e6c7920612052657461696c65722063616e2074616b65207468697320616374696f6e43616e206f6e6c79207472616e7366657220746865206f776e65727368697020746f2061207265616c206164647265737357726f6e672073746174652c20636f666665652073686f756c64206265206861727665737465642066697273742e4f6e6c7920746865206f776e65722063616e2074616b65207468697320616374696f6e2e4f6e6c792061204661726d65722063616e2074616b65207468697320616374696f6e4f6e6c79206120436f6e73756d65722063616e2074616b65207468697320616374696f6e57726f6e672073746174652c20636f666665652073686f756c6420626520666f722073616c652066697273742e57726f6e672073746174652c20636f666665652073686f756c6420626520736f6c642066697273742e57726f6e672073746174652c20636f666665652073686f756c64206265207061636b65642066697273742ea26469706673582212206a6f6e6fcce36a569b7b4cc1210347c1ef6c603f49d0c2e74aecb227c22bf40364736f6c63430006060033",
  "immutableReferences": {},
  "source": "pragma solidity ^0.6.0;\n\nimport \"../coffeecore/Ownable.sol\";\nimport \"../coffeeaccesscontrol/ConsumerRole.sol\";\nimport \"../coffeeaccesscontrol/DistributorRole.sol\";\nimport \"../coffeeaccesscontrol/FarmerRole.sol\";\nimport \"../coffeeaccesscontrol/RetailerRole.sol\";\n\n\ncontract SupplyChain is\n    Ownable,\n    ConsumerRole,\n    DistributorRole,\n    FarmerRole,\n    RetailerRole\n{\n    uint256 upc;\n\n    uint256 sku;\n\n    mapping(uint256 => Item) items;\n\n    mapping(uint256 => string[]) itemsHistory;\n\n    enum State {\n        Harvested, // 0\n        Processed, // 1\n        Packed, // 2\n        ForSale, // 3\n        Sold, // 4\n        Shipped, // 5\n        Received, // 6\n        Purchased // 7\n    }\n\n    State constant defaultState = State.Harvested;\n\n    struct Item {\n        uint256 sku; // Stock Keeping Unit (SKU)\n        uint256 upc; // Universal Product Code (UPC), generated by the Farmer, goes on the package, can be verified by the Consumer\n        address ownerID; // Metamask-Ethereum address of the current owner as the product moves through 8 stages\n        address originFarmerID; // Metamask-Ethereum address of the Farmer\n        string originFarmName; // Farmer Name\n        string originFarmInformation; // Farmer Information\n        string originFarmLatitude; // Farm Latitude\n        string originFarmLongitude; // Farm Longitude\n        uint256 productID; // Product ID potentially a combination of upc + sku\n        string productNotes; // Product Notes\n        uint256 productPrice; // Product Price\n        State itemState; // Product State as represented in the enum above\n        address distributorID; // Metamask-Ethereum address of the Distributor\n        address retailerID; // Metamask-Ethereum address of the Retailer\n        address consumerID; // Metamask-Ethereum address of the Consumer\n    }\n\n    event Harvested(uint256 upc);\n    event Processed(uint256 upc);\n    event Packed(uint256 upc);\n    event ForSale(uint256 upc);\n    event Sold(uint256 upc);\n    event Shipped(uint256 upc);\n    event Received(uint256 upc);\n    event Purchased(uint256 upc);\n\n    modifier verifyCaller(address _address) {\n        require(msg.sender == _address, \"This caller cannot take this action\");\n        _;\n    }\n\n    modifier paidEnough(uint256 _price) {\n        require(msg.value >= _price, \"Value is insufficient\");\n        _;\n    }\n\n    modifier checkValue(uint256 _upc) {\n        _;\n        uint256 _price = items[_upc].productPrice;\n        uint256 amountToReturn = msg.value - _price;\n        _transferTo(items[_upc].consumerID, amountToReturn);\n    }\n\n    modifier harvested(uint256 _upc) {\n        require(\n            items[_upc].itemState == State.Harvested,\n            \"Wrong state, coffee should be harvested first.\"\n        );\n        _;\n    }\n\n    modifier processed(uint256 _upc) {\n        require(\n            items[_upc].itemState == State.Processed,\n            \"Wrong state, coffee should be processed first.\"\n        );\n        _;\n    }\n\n    modifier packed(uint256 _upc) {\n        require(\n            items[_upc].itemState == State.Packed,\n            \"Wrong state, coffee should be packed first.\"\n        );\n        _;\n    }\n\n    modifier forSale(uint256 _upc) {\n        require(\n            items[_upc].itemState == State.ForSale,\n            \"Wrong state, coffee should be for sale first.\"\n        );\n        _;\n    }\n\n    modifier sold(uint256 _upc) {\n        require(\n            items[_upc].itemState == State.Sold,\n            \"Wrong state, coffee should be sold first.\"\n        );\n        _;\n    }\n\n    modifier shipped(uint256 _upc) {\n        require(\n            items[_upc].itemState == State.Shipped,\n            \"Wrong state, coffee should be shipped first.\"\n        );\n        _;\n    }\n\n    modifier received(uint256 _upc) {\n        require(\n            items[_upc].itemState == State.Received,\n            \"Wrong state, coffee should be received first.\"\n        );\n        _;\n    }\n\n    modifier purchased(uint256 _upc) {\n        require(\n            items[_upc].itemState == State.Purchased,\n            \"Wrong state, coffee should be purchased first.\"\n        );\n        _;\n    }\n\n    constructor() public payable {\n        sku = 1;\n        upc = 1;\n    }\n\n    function kill() public {\n        address payable owner = owner();\n        if (msg.sender == owner) {\n            selfdestruct(owner);\n        }\n    }\n\n    function harvestItem(\n        uint256 _upc,\n        address _originFarmerID,\n        string memory _originFarmName,\n        string memory _originFarmInformation,\n        string memory _originFarmLatitude,\n        string memory _originFarmLongitude,\n        string memory _productNotes\n    ) public onlyFarmer {\n        items[_upc] = Item({\n            sku: sku,\n            upc: _upc,\n            ownerID: msg.sender,\n            originFarmerID: _originFarmerID,\n            originFarmName: _originFarmName,\n            originFarmInformation: _originFarmInformation,\n            originFarmLatitude: _originFarmLatitude,\n            originFarmLongitude: _originFarmLongitude,\n            productID: _upc + sku,\n            productNotes: _productNotes,\n            productPrice: uint256(0),\n            itemState: defaultState,\n            distributorID: address(0),\n            retailerID: address(0),\n            consumerID: address(0)\n        });\n\n        sku = sku + 1;\n        emit Harvested(_upc);\n    }\n\n    function processItem(uint256 _upc) public harvested(_upc) onlyFarmer {\n        items[_upc].itemState = State.Harvested;\n        emit Processed(_upc);\n    }\n\n    function packItem(uint256 _upc) public harvested(_upc) onlyFarmer {\n        items[_upc].itemState = State.Packed;\n        emit Packed(_upc);\n    }\n\n    function sellItem(uint256 _upc, uint256 _price)\n        public\n        packed(_upc)\n        onlyFarmer\n    {\n        items[_upc].itemState = State.ForSale;\n        items[_upc].productPrice = _price;\n        emit ForSale(_upc);\n    }\n\n    function buyItem(uint256 _upc)\n        public\n        payable\n        forSale(_upc)\n        paidEnough(items[_upc].productPrice)\n        checkValue(_upc)\n        onlyDistributor\n    {\n        items[_upc].itemState = State.Sold;\n        items[_upc].ownerID = msg.sender;\n        items[_upc].distributorID = msg.sender;\n        msg.sender.transfer(items[_upc].productPrice);\n        emit Sold(_upc);\n    }\n\n    function shipItem(uint256 _upc) public sold(_upc) onlyDistributor {\n        items[_upc].itemState = State.Shipped;\n        emit Shipped(_upc);\n    }\n\n    function receiveItem(uint256 _upc) public shipped(_upc) onlyRetailer {\n        items[_upc].itemState = State.Received;\n        items[_upc].ownerID = msg.sender;\n        items[_upc].distributorID = msg.sender;\n        emit Received(_upc);\n    }\n\n    function purchaseItem(uint256 _upc) public received(_upc) onlyConsumer {\n        items[_upc].itemState = State.Purchased;\n        items[_upc].ownerID = msg.sender;\n        items[_upc].distributorID = msg.sender;\n        emit Purchased(_upc);\n    }\n\n    function fetchItemBufferOne(uint256 _upc)\n        public\n        view\n        returns (\n            uint256 itemSKU,\n            uint256 itemUPC,\n            address ownerID,\n            address originFarmerID,\n            string memory originFarmName,\n            string memory originFarmInformation,\n            string memory originFarmLatitude,\n            string memory originFarmLongitude\n        )\n    {\n        itemSKU = items[_upc].sku;\n        itemUPC = items[_upc].upc;\n        ownerID = items[_upc].ownerID;\n        originFarmerID = items[_upc].originFarmerID;\n        originFarmName = items[_upc].originFarmName;\n        originFarmInformation = items[_upc].originFarmInformation;\n        originFarmLatitude = items[_upc].originFarmLatitude;\n        originFarmLongitude = items[_upc].originFarmLongitude;\n    }\n\n    function fetchItemBufferTwo(uint256 _upc)\n        public\n        view\n        returns (\n            uint256 itemSKU,\n            uint256 itemUPC,\n            uint256 productID,\n            string memory productNotes,\n            uint256 productPrice,\n            uint256 itemState,\n            address distributorID,\n            address retailerID,\n            address consumerID\n        )\n    {\n        itemSKU = items[_upc].sku;\n        itemUPC = items[_upc].upc;\n        productID = items[_upc].productID;\n        productNotes = items[_upc].productNotes;\n        productPrice = items[_upc].productPrice;\n        itemState = uint(items[_upc].itemState);\n        distributorID = items[_upc].distributorID;\n        retailerID = items[_upc].retailerID;\n        consumerID = items[_upc].consumerID;\n    }\n\n    function _transferTo(address to, uint256 amount) private {\n        payable(to).transfer(amount);\n    }\n}\n",
  "sourcePath": "/Users/matt/Documents/dev/blockchain/p3-coffee-trade/contracts/coffeebase/SupplyChain.sol",
  "compiler": {
    "name": "solc",
    "version": "0.6.6+commit.6c089d02.Emscripten.clang"
  },
  "schemaVersion": "3.1.0",
  "updatedAt": "2020-05-03T14:13:23.980Z",
  "devdoc": {
    "methods": {}
  },
  "userdoc": {
    "methods": {
      "isOwner()": {
        "notice": "Check if the calling address is the owner of the contract"
      },
      "owner()": {
        "notice": "Look up the address of the owner"
      },
      "renounceOwnership()": {
        "notice": "Define a function to renounce ownerhip"
      },
      "transferOwnership(address)": {
        "notice": "Define a public function to transfer ownership"
      }
    }
  }
}